{
	"contracts/assignment.sol": {
		"Base": {
			"abi": [
				{
					"inputs": [],
					"name": "LogicalOperator",
					"outputs": [
						{
							"internalType": "bool",
							"name": "",
							"type": "bool"
						},
						{
							"internalType": "bool",
							"name": "",
							"type": "bool"
						},
						{
							"internalType": "bool",
							"name": "",
							"type": "bool"
						}
					],
					"stateMutability": "view",
					"type": "function"
				},
				{
					"inputs": [],
					"name": "arithmetic",
					"outputs": [
						{
							"internalType": "uint256",
							"name": "",
							"type": "uint256"
						},
						{
							"internalType": "uint256",
							"name": "",
							"type": "uint256"
						},
						{
							"internalType": "uint256",
							"name": "",
							"type": "uint256"
						},
						{
							"internalType": "uint256",
							"name": "",
							"type": "uint256"
						},
						{
							"internalType": "uint256",
							"name": "",
							"type": "uint256"
						}
					],
					"stateMutability": "view",
					"type": "function"
				},
				{
					"inputs": [],
					"name": "relational",
					"outputs": [
						{
							"internalType": "bool",
							"name": "",
							"type": "bool"
						},
						{
							"internalType": "bool",
							"name": "",
							"type": "bool"
						},
						{
							"internalType": "bool",
							"name": "",
							"type": "bool"
						},
						{
							"internalType": "bool",
							"name": "",
							"type": "bool"
						},
						{
							"internalType": "bool",
							"name": "",
							"type": "bool"
						},
						{
							"internalType": "bool",
							"name": "",
							"type": "bool"
						}
					],
					"stateMutability": "view",
					"type": "function"
				},
				{
					"inputs": [],
					"name": "var1",
					"outputs": [
						{
							"internalType": "uint256",
							"name": "",
							"type": "uint256"
						}
					],
					"stateMutability": "view",
					"type": "function"
				}
			],
			"devdoc": {
				"kind": "dev",
				"methods": {},
				"version": 1
			},
			"evm": {
				"assembly": "    /* \"contracts/assignment.sol\":64:1130  contract Base{... */\n  mstore(0x40, 0x80)\n    /* \"contracts/assignment.sol\":103:105  10 */\n  0x0a\n    /* \"contracts/assignment.sol\":84:105  uint public var1 = 10 */\n  0x00\n  sstore\n    /* \"contracts/assignment.sol\":132:133  2 */\n  0x02\n    /* \"contracts/assignment.sol\":112:133  uint private var2 = 2 */\n  0x01\n  sstore\n    /* \"contracts/assignment.sol\":161:163  20 */\n  0x14\n    /* \"contracts/assignment.sol\":140:163  uint internal var3 = 20 */\n  0x02\n  sstore\n    /* \"contracts/assignment.sol\":64:1130  contract Base{... */\n  callvalue\n  dup1\n  iszero\n  tag_1\n  jumpi\n  0x00\n  dup1\n  revert\ntag_1:\n  pop\n  dataSize(sub_0)\n  dup1\n  dataOffset(sub_0)\n  0x00\n  codecopy\n  0x00\n  return\nstop\n\nsub_0: assembly {\n        /* \"contracts/assignment.sol\":64:1130  contract Base{... */\n      mstore(0x40, 0x80)\n      callvalue\n      dup1\n      iszero\n      tag_1\n      jumpi\n      0x00\n      dup1\n      revert\n    tag_1:\n      pop\n      jumpi(tag_2, lt(calldatasize, 0x04))\n      shr(0xe0, calldataload(0x00))\n      dup1\n      0x46d46df2\n      eq\n      tag_3\n      jumpi\n      dup1\n      0x67e919b6\n      eq\n      tag_4\n      jumpi\n      dup1\n      0x980a67fd\n      eq\n      tag_5\n      jumpi\n      dup1\n      0xbd0deae5\n      eq\n      tag_6\n      jumpi\n    tag_2:\n      0x00\n      dup1\n      revert\n        /* \"contracts/assignment.sol\":484:899  function relational()public view returns (bool,bool,bool,bool,bool,bool){... */\n    tag_3:\n      tag_7\n      tag_8\n      jump\t// in\n    tag_7:\n      mload(0x40)\n      tag_9\n      swap7\n      swap6\n      swap5\n      swap4\n      swap3\n      swap2\n      swap1\n      tag_10\n      jump\t// in\n    tag_9:\n      mload(0x40)\n      dup1\n      swap2\n      sub\n      swap1\n      return\n        /* \"contracts/assignment.sol\":84:105  uint public var1 = 10 */\n    tag_4:\n      tag_11\n      tag_12\n      jump\t// in\n    tag_11:\n      mload(0x40)\n      tag_13\n      swap2\n      swap1\n      tag_14\n      jump\t// in\n    tag_13:\n      mload(0x40)\n      dup1\n      swap2\n      sub\n      swap1\n      return\n        /* \"contracts/assignment.sol\":172:476  function arithmetic()public view returns(uint, uint, uint, uint, uint){... */\n    tag_5:\n      tag_15\n      tag_16\n      jump\t// in\n    tag_15:\n      mload(0x40)\n      tag_17\n      swap6\n      swap5\n      swap4\n      swap3\n      swap2\n      swap1\n      tag_18\n      jump\t// in\n    tag_17:\n      mload(0x40)\n      dup1\n      swap2\n      sub\n      swap1\n      return\n        /* \"contracts/assignment.sol\":907:1127  function LogicalOperator()public view returns(bool, bool, bool){... */\n    tag_6:\n      tag_19\n      tag_20\n      jump\t// in\n    tag_19:\n      mload(0x40)\n      tag_21\n      swap4\n      swap3\n      swap2\n      swap1\n      tag_22\n      jump\t// in\n    tag_21:\n      mload(0x40)\n      dup1\n      swap2\n      sub\n      swap1\n      return\n        /* \"contracts/assignment.sol\":484:899  function relational()public view returns (bool,bool,bool,bool,bool,bool){... */\n    tag_8:\n        /* \"contracts/assignment.sol\":526:530  bool */\n      0x00\n        /* \"contracts/assignment.sol\":531:535  bool */\n      dup1\n        /* \"contracts/assignment.sol\":536:540  bool */\n      0x00\n        /* \"contracts/assignment.sol\":541:545  bool */\n      dup1\n        /* \"contracts/assignment.sol\":546:550  bool */\n      0x00\n        /* \"contracts/assignment.sol\":551:555  bool */\n      dup1\n        /* \"contracts/assignment.sol\":567:577  bool equal */\n      0x00\n        /* \"contracts/assignment.sol\":588:592  var2 */\n      sload(0x01)\n        /* \"contracts/assignment.sol\":580:584  var1 */\n      sload(0x00)\n        /* \"contracts/assignment.sol\":580:592  var1 == var2 */\n      eq\n        /* \"contracts/assignment.sol\":567:592  bool equal = var1 == var2 */\n      swap1\n      pop\n        /* \"contracts/assignment.sol\":603:616  bool notequal */\n      0x00\n        /* \"contracts/assignment.sol\":627:631  var2 */\n      sload(0x01)\n        /* \"contracts/assignment.sol\":619:623  var1 */\n      sload(0x00)\n        /* \"contracts/assignment.sol\":619:631  var1 != var2 */\n      eq\n      iszero\n        /* \"contracts/assignment.sol\":603:631  bool notequal = var1 != var2 */\n      swap1\n      pop\n        /* \"contracts/assignment.sol\":642:658  bool greaterthan */\n      0x00\n        /* \"contracts/assignment.sol\":669:673  var2 */\n      sload(0x01)\n        /* \"contracts/assignment.sol\":662:666  var1 */\n      sload(0x00)\n        /* \"contracts/assignment.sol\":662:673  var1 > var2 */\n      gt\n        /* \"contracts/assignment.sol\":642:673  bool greaterthan =  var1 > var2 */\n      swap1\n      pop\n        /* \"contracts/assignment.sol\":684:697  bool lessthan */\n      0x00\n        /* \"contracts/assignment.sol\":707:711  var2 */\n      sload(0x01)\n        /* \"contracts/assignment.sol\":700:704  var1 */\n      sload(0x00)\n        /* \"contracts/assignment.sol\":700:711  var1 < var2 */\n      lt\n        /* \"contracts/assignment.sol\":684:711  bool lessthan = var1 < var2 */\n      swap1\n      pop\n        /* \"contracts/assignment.sol\":722:743  bool greaterthanequal */\n      0x00\n        /* \"contracts/assignment.sol\":754:758  var2 */\n      sload(0x01)\n        /* \"contracts/assignment.sol\":746:750  var1 */\n      sload(0x00)\n        /* \"contracts/assignment.sol\":746:758  var1 >= var2 */\n      lt\n      iszero\n        /* \"contracts/assignment.sol\":722:758  bool greaterthanequal = var1 >= var2 */\n      swap1\n      pop\n        /* \"contracts/assignment.sol\":769:787  bool lessthanequal */\n      0x00\n        /* \"contracts/assignment.sol\":798:802  var2 */\n      sload(0x01)\n        /* \"contracts/assignment.sol\":790:794  var1 */\n      sload(0x00)\n        /* \"contracts/assignment.sol\":790:802  var1 <= var2 */\n      gt\n      iszero\n        /* \"contracts/assignment.sol\":769:802  bool lessthanequal = var1 <= var2 */\n      swap1\n      pop\n        /* \"contracts/assignment.sol\":823:828  equal */\n      dup6\n        /* \"contracts/assignment.sol\":829:837  notequal */\n      dup6\n        /* \"contracts/assignment.sol\":839:850  greaterthan */\n      dup6\n        /* \"contracts/assignment.sol\":851:859  lessthan */\n      dup6\n        /* \"contracts/assignment.sol\":860:876  greaterthanequal */\n      dup6\n        /* \"contracts/assignment.sol\":877:890  lessthanequal */\n      dup6\n        /* \"contracts/assignment.sol\":815:891  return (equal,notequal, greaterthan,lessthan,greaterthanequal,lessthanequal) */\n      swap12\n      pop\n      swap12\n      pop\n      swap12\n      pop\n      swap12\n      pop\n      swap12\n      pop\n      swap12\n      pop\n      pop\n      pop\n      pop\n      pop\n      pop\n      pop\n        /* \"contracts/assignment.sol\":484:899  function relational()public view returns (bool,bool,bool,bool,bool,bool){... */\n      swap1\n      swap2\n      swap3\n      swap4\n      swap5\n      swap6\n      jump\t// out\n        /* \"contracts/assignment.sol\":84:105  uint public var1 = 10 */\n    tag_12:\n      sload(0x00)\n      dup2\n      jump\t// out\n        /* \"contracts/assignment.sol\":172:476  function arithmetic()public view returns(uint, uint, uint, uint, uint){... */\n    tag_16:\n        /* \"contracts/assignment.sol\":213:217  uint */\n      0x00\n        /* \"contracts/assignment.sol\":219:223  uint */\n      dup1\n        /* \"contracts/assignment.sol\":225:229  uint */\n      0x00\n        /* \"contracts/assignment.sol\":231:235  uint */\n      dup1\n        /* \"contracts/assignment.sol\":237:241  uint */\n      0x00\n        /* \"contracts/assignment.sol\":253:261  uint sum */\n      dup1\n        /* \"contracts/assignment.sol\":273:277  var2 */\n      sload(0x01)\n        /* \"contracts/assignment.sol\":265:269  var1 */\n      sload(0x00)\n        /* \"contracts/assignment.sol\":265:277  var1 +  var2 */\n      tag_25\n      swap2\n      swap1\n      tag_26\n      jump\t// in\n    tag_25:\n        /* \"contracts/assignment.sol\":253:277  uint sum =  var1 +  var2 */\n      swap1\n      pop\n        /* \"contracts/assignment.sol\":288:297  uint diff */\n      0x00\n        /* \"contracts/assignment.sol\":309:313  var2 */\n      sload(0x01)\n        /* \"contracts/assignment.sol\":301:305  var1 */\n      sload(0x00)\n        /* \"contracts/assignment.sol\":301:313  var1 -  var2 */\n      tag_27\n      swap2\n      swap1\n      tag_28\n      jump\t// in\n    tag_27:\n        /* \"contracts/assignment.sol\":288:313  uint diff =  var1 -  var2 */\n      swap1\n      pop\n        /* \"contracts/assignment.sol\":324:332  uint pro */\n      0x00\n        /* \"contracts/assignment.sol\":343:347  var2 */\n      sload(0x01)\n        /* \"contracts/assignment.sol\":336:340  var1 */\n      sload(0x00)\n        /* \"contracts/assignment.sol\":336:347  var1*  var2 */\n      tag_29\n      swap2\n      swap1\n      tag_30\n      jump\t// in\n    tag_29:\n        /* \"contracts/assignment.sol\":324:347  uint pro =  var1*  var2 */\n      swap1\n      pop\n        /* \"contracts/assignment.sol\":358:366  uint div */\n      0x00\n        /* \"contracts/assignment.sol\":377:381  var2 */\n      sload(0x01)\n        /* \"contracts/assignment.sol\":370:374  var1 */\n      sload(0x00)\n        /* \"contracts/assignment.sol\":370:381  var1/  var2 */\n      tag_31\n      swap2\n      swap1\n      tag_32\n      jump\t// in\n    tag_31:\n        /* \"contracts/assignment.sol\":358:381  uint div =  var1/  var2 */\n      swap1\n      pop\n        /* \"contracts/assignment.sol\":392:400  uint mod */\n      0x00\n        /* \"contracts/assignment.sol\":411:415  var2 */\n      sload(0x01)\n        /* \"contracts/assignment.sol\":404:408  var1 */\n      sload(0x00)\n        /* \"contracts/assignment.sol\":404:415  var1%  var2 */\n      tag_33\n      swap2\n      swap1\n      tag_34\n      jump\t// in\n    tag_33:\n        /* \"contracts/assignment.sol\":392:415  uint mod =  var1%  var2 */\n      swap1\n      pop\n        /* \"contracts/assignment.sol\":434:437  sum */\n      dup5\n        /* \"contracts/assignment.sol\":439:443  diff */\n      dup5\n        /* \"contracts/assignment.sol\":445:448  pro */\n      dup5\n        /* \"contracts/assignment.sol\":450:453  div */\n      dup5\n        /* \"contracts/assignment.sol\":455:458  mod */\n      dup5\n        /* \"contracts/assignment.sol\":426:459  return (sum, diff, pro, div, mod) */\n      swap10\n      pop\n      swap10\n      pop\n      swap10\n      pop\n      swap10\n      pop\n      swap10\n      pop\n      pop\n      pop\n      pop\n      pop\n      pop\n        /* \"contracts/assignment.sol\":172:476  function arithmetic()public view returns(uint, uint, uint, uint, uint){... */\n      swap1\n      swap2\n      swap3\n      swap4\n      swap5\n      jump\t// out\n        /* \"contracts/assignment.sol\":907:1127  function LogicalOperator()public view returns(bool, bool, bool){... */\n    tag_20:\n        /* \"contracts/assignment.sol\":953:957  bool */\n      0x00\n        /* \"contracts/assignment.sol\":959:963  bool */\n      dup1\n        /* \"contracts/assignment.sol\":965:969  bool */\n      0x00\n        /* \"contracts/assignment.sol\":981:989  bool and */\n      dup1\n        /* \"contracts/assignment.sol\":999:1000  5 */\n      0x05\n        /* \"contracts/assignment.sol\":992:996  var1 */\n      sload(0x00)\n        /* \"contracts/assignment.sol\":992:1000  var1 > 5 */\n      gt\n        /* \"contracts/assignment.sol\":992:1012  var1 > 5 && var2 < 5 */\n      dup1\n      iszero\n      tag_36\n      jumpi\n      pop\n        /* \"contracts/assignment.sol\":1011:1012  5 */\n      0x05\n        /* \"contracts/assignment.sol\":1004:1008  var2 */\n      sload(0x01)\n        /* \"contracts/assignment.sol\":1004:1012  var2 < 5 */\n      lt\n        /* \"contracts/assignment.sol\":992:1012  var1 > 5 && var2 < 5 */\n    tag_36:\n        /* \"contracts/assignment.sol\":981:1012  bool and = var1 > 5 && var2 < 5 */\n      swap1\n      pop\n        /* \"contracts/assignment.sol\":1023:1030  bool or */\n      0x00\n        /* \"contracts/assignment.sol\":1040:1041  5 */\n      0x05\n        /* \"contracts/assignment.sol\":1033:1037  var1 */\n      sload(0x00)\n        /* \"contracts/assignment.sol\":1033:1041  var1 > 5 */\n      gt\n        /* \"contracts/assignment.sol\":1033:1053  var1 > 5 || var2 < 5 */\n      dup1\n      tag_37\n      jumpi\n      pop\n        /* \"contracts/assignment.sol\":1052:1053  5 */\n      0x05\n        /* \"contracts/assignment.sol\":1045:1049  var2 */\n      sload(0x01)\n        /* \"contracts/assignment.sol\":1045:1053  var2 < 5 */\n      lt\n        /* \"contracts/assignment.sol\":1033:1053  var1 > 5 || var2 < 5 */\n    tag_37:\n        /* \"contracts/assignment.sol\":1023:1053  bool or = var1 > 5 || var2 < 5 */\n      swap1\n      pop\n        /* \"contracts/assignment.sol\":1064:1072  bool not */\n      0x00\n        /* \"contracts/assignment.sol\":1084:1085  5 */\n      0x05\n        /* \"contracts/assignment.sol\":1077:1081  var1 */\n      sload(0x00)\n        /* \"contracts/assignment.sol\":1077:1085  var1 > 5 */\n      gt\n        /* \"contracts/assignment.sol\":1075:1086  !(var1 > 5) */\n      iszero\n        /* \"contracts/assignment.sol\":1064:1086  bool not = !(var1 > 5) */\n      swap1\n      pop\n        /* \"contracts/assignment.sol\":1106:1109  and */\n      dup3\n        /* \"contracts/assignment.sol\":1111:1113  or */\n      dup3\n        /* \"contracts/assignment.sol\":1115:1118  not */\n      dup3\n        /* \"contracts/assignment.sol\":1097:1119  return  (and, or, not) */\n      swap6\n      pop\n      swap6\n      pop\n      swap6\n      pop\n      pop\n      pop\n      pop\n        /* \"contracts/assignment.sol\":907:1127  function LogicalOperator()public view returns(bool, bool, bool){... */\n      swap1\n      swap2\n      swap3\n      jump\t// out\n        /* \"#utility.yul\":7:97   */\n    tag_38:\n        /* \"#utility.yul\":41:48   */\n      0x00\n        /* \"#utility.yul\":84:89   */\n      dup2\n        /* \"#utility.yul\":77:90   */\n      iszero\n        /* \"#utility.yul\":70:91   */\n      iszero\n        /* \"#utility.yul\":59:91   */\n      swap1\n      pop\n        /* \"#utility.yul\":7:97   */\n      swap2\n      swap1\n      pop\n      jump\t// out\n        /* \"#utility.yul\":103:212   */\n    tag_39:\n        /* \"#utility.yul\":184:205   */\n      tag_47\n        /* \"#utility.yul\":199:204   */\n      dup2\n        /* \"#utility.yul\":184:205   */\n      tag_38\n      jump\t// in\n    tag_47:\n        /* \"#utility.yul\":179:182   */\n      dup3\n        /* \"#utility.yul\":172:206   */\n      mstore\n        /* \"#utility.yul\":103:212   */\n      pop\n      pop\n      jump\t// out\n        /* \"#utility.yul\":218:921   */\n    tag_10:\n        /* \"#utility.yul\":415:419   */\n      0x00\n        /* \"#utility.yul\":453:456   */\n      0xc0\n        /* \"#utility.yul\":442:451   */\n      dup3\n        /* \"#utility.yul\":438:457   */\n      add\n        /* \"#utility.yul\":430:457   */\n      swap1\n      pop\n        /* \"#utility.yul\":467:532   */\n      tag_49\n        /* \"#utility.yul\":529:530   */\n      0x00\n        /* \"#utility.yul\":518:527   */\n      dup4\n        /* \"#utility.yul\":514:531   */\n      add\n        /* \"#utility.yul\":505:511   */\n      dup10\n        /* \"#utility.yul\":467:532   */\n      tag_39\n      jump\t// in\n    tag_49:\n        /* \"#utility.yul\":542:608   */\n      tag_50\n        /* \"#utility.yul\":604:606   */\n      0x20\n        /* \"#utility.yul\":593:602   */\n      dup4\n        /* \"#utility.yul\":589:607   */\n      add\n        /* \"#utility.yul\":580:586   */\n      dup9\n        /* \"#utility.yul\":542:608   */\n      tag_39\n      jump\t// in\n    tag_50:\n        /* \"#utility.yul\":618:684   */\n      tag_51\n        /* \"#utility.yul\":680:682   */\n      0x40\n        /* \"#utility.yul\":669:678   */\n      dup4\n        /* \"#utility.yul\":665:683   */\n      add\n        /* \"#utility.yul\":656:662   */\n      dup8\n        /* \"#utility.yul\":618:684   */\n      tag_39\n      jump\t// in\n    tag_51:\n        /* \"#utility.yul\":694:760   */\n      tag_52\n        /* \"#utility.yul\":756:758   */\n      0x60\n        /* \"#utility.yul\":745:754   */\n      dup4\n        /* \"#utility.yul\":741:759   */\n      add\n        /* \"#utility.yul\":732:738   */\n      dup7\n        /* \"#utility.yul\":694:760   */\n      tag_39\n      jump\t// in\n    tag_52:\n        /* \"#utility.yul\":770:837   */\n      tag_53\n        /* \"#utility.yul\":832:835   */\n      0x80\n        /* \"#utility.yul\":821:830   */\n      dup4\n        /* \"#utility.yul\":817:836   */\n      add\n        /* \"#utility.yul\":808:814   */\n      dup6\n        /* \"#utility.yul\":770:837   */\n      tag_39\n      jump\t// in\n    tag_53:\n        /* \"#utility.yul\":847:914   */\n      tag_54\n        /* \"#utility.yul\":909:912   */\n      0xa0\n        /* \"#utility.yul\":898:907   */\n      dup4\n        /* \"#utility.yul\":894:913   */\n      add\n        /* \"#utility.yul\":885:891   */\n      dup5\n        /* \"#utility.yul\":847:914   */\n      tag_39\n      jump\t// in\n    tag_54:\n        /* \"#utility.yul\":218:921   */\n      swap8\n      swap7\n      pop\n      pop\n      pop\n      pop\n      pop\n      pop\n      pop\n      jump\t// out\n        /* \"#utility.yul\":927:1004   */\n    tag_40:\n        /* \"#utility.yul\":964:971   */\n      0x00\n        /* \"#utility.yul\":993:998   */\n      dup2\n        /* \"#utility.yul\":982:998   */\n      swap1\n      pop\n        /* \"#utility.yul\":927:1004   */\n      swap2\n      swap1\n      pop\n      jump\t// out\n        /* \"#utility.yul\":1010:1128   */\n    tag_41:\n        /* \"#utility.yul\":1097:1121   */\n      tag_57\n        /* \"#utility.yul\":1115:1120   */\n      dup2\n        /* \"#utility.yul\":1097:1121   */\n      tag_40\n      jump\t// in\n    tag_57:\n        /* \"#utility.yul\":1092:1095   */\n      dup3\n        /* \"#utility.yul\":1085:1122   */\n      mstore\n        /* \"#utility.yul\":1010:1128   */\n      pop\n      pop\n      jump\t// out\n        /* \"#utility.yul\":1134:1356   */\n    tag_14:\n        /* \"#utility.yul\":1227:1231   */\n      0x00\n        /* \"#utility.yul\":1265:1267   */\n      0x20\n        /* \"#utility.yul\":1254:1263   */\n      dup3\n        /* \"#utility.yul\":1250:1268   */\n      add\n        /* \"#utility.yul\":1242:1268   */\n      swap1\n      pop\n        /* \"#utility.yul\":1278:1349   */\n      tag_59\n        /* \"#utility.yul\":1346:1347   */\n      0x00\n        /* \"#utility.yul\":1335:1344   */\n      dup4\n        /* \"#utility.yul\":1331:1348   */\n      add\n        /* \"#utility.yul\":1322:1328   */\n      dup5\n        /* \"#utility.yul\":1278:1349   */\n      tag_41\n      jump\t// in\n    tag_59:\n        /* \"#utility.yul\":1134:1356   */\n      swap3\n      swap2\n      pop\n      pop\n      jump\t// out\n        /* \"#utility.yul\":1362:2026   */\n    tag_18:\n        /* \"#utility.yul\":1567:1571   */\n      0x00\n        /* \"#utility.yul\":1605:1608   */\n      0xa0\n        /* \"#utility.yul\":1594:1603   */\n      dup3\n        /* \"#utility.yul\":1590:1609   */\n      add\n        /* \"#utility.yul\":1582:1609   */\n      swap1\n      pop\n        /* \"#utility.yul\":1619:1690   */\n      tag_61\n        /* \"#utility.yul\":1687:1688   */\n      0x00\n        /* \"#utility.yul\":1676:1685   */\n      dup4\n        /* \"#utility.yul\":1672:1689   */\n      add\n        /* \"#utility.yul\":1663:1669   */\n      dup9\n        /* \"#utility.yul\":1619:1690   */\n      tag_41\n      jump\t// in\n    tag_61:\n        /* \"#utility.yul\":1700:1772   */\n      tag_62\n        /* \"#utility.yul\":1768:1770   */\n      0x20\n        /* \"#utility.yul\":1757:1766   */\n      dup4\n        /* \"#utility.yul\":1753:1771   */\n      add\n        /* \"#utility.yul\":1744:1750   */\n      dup8\n        /* \"#utility.yul\":1700:1772   */\n      tag_41\n      jump\t// in\n    tag_62:\n        /* \"#utility.yul\":1782:1854   */\n      tag_63\n        /* \"#utility.yul\":1850:1852   */\n      0x40\n        /* \"#utility.yul\":1839:1848   */\n      dup4\n        /* \"#utility.yul\":1835:1853   */\n      add\n        /* \"#utility.yul\":1826:1832   */\n      dup7\n        /* \"#utility.yul\":1782:1854   */\n      tag_41\n      jump\t// in\n    tag_63:\n        /* \"#utility.yul\":1864:1936   */\n      tag_64\n        /* \"#utility.yul\":1932:1934   */\n      0x60\n        /* \"#utility.yul\":1921:1930   */\n      dup4\n        /* \"#utility.yul\":1917:1935   */\n      add\n        /* \"#utility.yul\":1908:1914   */\n      dup6\n        /* \"#utility.yul\":1864:1936   */\n      tag_41\n      jump\t// in\n    tag_64:\n        /* \"#utility.yul\":1946:2019   */\n      tag_65\n        /* \"#utility.yul\":2014:2017   */\n      0x80\n        /* \"#utility.yul\":2003:2012   */\n      dup4\n        /* \"#utility.yul\":1999:2018   */\n      add\n        /* \"#utility.yul\":1990:1996   */\n      dup5\n        /* \"#utility.yul\":1946:2019   */\n      tag_41\n      jump\t// in\n    tag_65:\n        /* \"#utility.yul\":1362:2026   */\n      swap7\n      swap6\n      pop\n      pop\n      pop\n      pop\n      pop\n      pop\n      jump\t// out\n        /* \"#utility.yul\":2032:2438   */\n    tag_22:\n        /* \"#utility.yul\":2163:2167   */\n      0x00\n        /* \"#utility.yul\":2201:2203   */\n      0x60\n        /* \"#utility.yul\":2190:2199   */\n      dup3\n        /* \"#utility.yul\":2186:2204   */\n      add\n        /* \"#utility.yul\":2178:2204   */\n      swap1\n      pop\n        /* \"#utility.yul\":2214:2279   */\n      tag_67\n        /* \"#utility.yul\":2276:2277   */\n      0x00\n        /* \"#utility.yul\":2265:2274   */\n      dup4\n        /* \"#utility.yul\":2261:2278   */\n      add\n        /* \"#utility.yul\":2252:2258   */\n      dup7\n        /* \"#utility.yul\":2214:2279   */\n      tag_39\n      jump\t// in\n    tag_67:\n        /* \"#utility.yul\":2289:2355   */\n      tag_68\n        /* \"#utility.yul\":2351:2353   */\n      0x20\n        /* \"#utility.yul\":2340:2349   */\n      dup4\n        /* \"#utility.yul\":2336:2354   */\n      add\n        /* \"#utility.yul\":2327:2333   */\n      dup6\n        /* \"#utility.yul\":2289:2355   */\n      tag_39\n      jump\t// in\n    tag_68:\n        /* \"#utility.yul\":2365:2431   */\n      tag_69\n        /* \"#utility.yul\":2427:2429   */\n      0x40\n        /* \"#utility.yul\":2416:2425   */\n      dup4\n        /* \"#utility.yul\":2412:2430   */\n      add\n        /* \"#utility.yul\":2403:2409   */\n      dup5\n        /* \"#utility.yul\":2365:2431   */\n      tag_39\n      jump\t// in\n    tag_69:\n        /* \"#utility.yul\":2032:2438   */\n      swap5\n      swap4\n      pop\n      pop\n      pop\n      pop\n      jump\t// out\n        /* \"#utility.yul\":2444:2624   */\n    tag_42:\n        /* \"#utility.yul\":2492:2569   */\n      0x4e487b7100000000000000000000000000000000000000000000000000000000\n        /* \"#utility.yul\":2489:2490   */\n      0x00\n        /* \"#utility.yul\":2482:2570   */\n      mstore\n        /* \"#utility.yul\":2589:2593   */\n      0x11\n        /* \"#utility.yul\":2586:2587   */\n      0x04\n        /* \"#utility.yul\":2579:2594   */\n      mstore\n        /* \"#utility.yul\":2613:2617   */\n      0x24\n        /* \"#utility.yul\":2610:2611   */\n      0x00\n        /* \"#utility.yul\":2603:2618   */\n      revert\n        /* \"#utility.yul\":2630:2821   */\n    tag_26:\n        /* \"#utility.yul\":2670:2673   */\n      0x00\n        /* \"#utility.yul\":2689:2709   */\n      tag_72\n        /* \"#utility.yul\":2707:2708   */\n      dup3\n        /* \"#utility.yul\":2689:2709   */\n      tag_40\n      jump\t// in\n    tag_72:\n        /* \"#utility.yul\":2684:2709   */\n      swap2\n      pop\n        /* \"#utility.yul\":2723:2743   */\n      tag_73\n        /* \"#utility.yul\":2741:2742   */\n      dup4\n        /* \"#utility.yul\":2723:2743   */\n      tag_40\n      jump\t// in\n    tag_73:\n        /* \"#utility.yul\":2718:2743   */\n      swap3\n      pop\n        /* \"#utility.yul\":2766:2767   */\n      dup3\n        /* \"#utility.yul\":2763:2764   */\n      dup3\n        /* \"#utility.yul\":2759:2768   */\n      add\n        /* \"#utility.yul\":2752:2768   */\n      swap1\n      pop\n        /* \"#utility.yul\":2787:2790   */\n      dup1\n        /* \"#utility.yul\":2784:2785   */\n      dup3\n        /* \"#utility.yul\":2781:2791   */\n      gt\n        /* \"#utility.yul\":2778:2814   */\n      iszero\n      tag_74\n      jumpi\n        /* \"#utility.yul\":2794:2812   */\n      tag_75\n      tag_42\n      jump\t// in\n    tag_75:\n        /* \"#utility.yul\":2778:2814   */\n    tag_74:\n        /* \"#utility.yul\":2630:2821   */\n      swap3\n      swap2\n      pop\n      pop\n      jump\t// out\n        /* \"#utility.yul\":2827:3021   */\n    tag_28:\n        /* \"#utility.yul\":2867:2871   */\n      0x00\n        /* \"#utility.yul\":2887:2907   */\n      tag_77\n        /* \"#utility.yul\":2905:2906   */\n      dup3\n        /* \"#utility.yul\":2887:2907   */\n      tag_40\n      jump\t// in\n    tag_77:\n        /* \"#utility.yul\":2882:2907   */\n      swap2\n      pop\n        /* \"#utility.yul\":2921:2941   */\n      tag_78\n        /* \"#utility.yul\":2939:2940   */\n      dup4\n        /* \"#utility.yul\":2921:2941   */\n      tag_40\n      jump\t// in\n    tag_78:\n        /* \"#utility.yul\":2916:2941   */\n      swap3\n      pop\n        /* \"#utility.yul\":2965:2966   */\n      dup3\n        /* \"#utility.yul\":2962:2963   */\n      dup3\n        /* \"#utility.yul\":2958:2967   */\n      sub\n        /* \"#utility.yul\":2950:2967   */\n      swap1\n      pop\n        /* \"#utility.yul\":2989:2990   */\n      dup2\n        /* \"#utility.yul\":2983:2987   */\n      dup2\n        /* \"#utility.yul\":2980:2991   */\n      gt\n        /* \"#utility.yul\":2977:3014   */\n      iszero\n      tag_79\n      jumpi\n        /* \"#utility.yul\":2994:3012   */\n      tag_80\n      tag_42\n      jump\t// in\n    tag_80:\n        /* \"#utility.yul\":2977:3014   */\n    tag_79:\n        /* \"#utility.yul\":2827:3021   */\n      swap3\n      swap2\n      pop\n      pop\n      jump\t// out\n        /* \"#utility.yul\":3027:3437   */\n    tag_30:\n        /* \"#utility.yul\":3067:3074   */\n      0x00\n        /* \"#utility.yul\":3090:3110   */\n      tag_82\n        /* \"#utility.yul\":3108:3109   */\n      dup3\n        /* \"#utility.yul\":3090:3110   */\n      tag_40\n      jump\t// in\n    tag_82:\n        /* \"#utility.yul\":3085:3110   */\n      swap2\n      pop\n        /* \"#utility.yul\":3124:3144   */\n      tag_83\n        /* \"#utility.yul\":3142:3143   */\n      dup4\n        /* \"#utility.yul\":3124:3144   */\n      tag_40\n      jump\t// in\n    tag_83:\n        /* \"#utility.yul\":3119:3144   */\n      swap3\n      pop\n        /* \"#utility.yul\":3179:3180   */\n      dup3\n        /* \"#utility.yul\":3176:3177   */\n      dup3\n        /* \"#utility.yul\":3172:3181   */\n      mul\n        /* \"#utility.yul\":3201:3231   */\n      tag_84\n        /* \"#utility.yul\":3219:3230   */\n      dup2\n        /* \"#utility.yul\":3201:3231   */\n      tag_40\n      jump\t// in\n    tag_84:\n        /* \"#utility.yul\":3190:3231   */\n      swap2\n      pop\n        /* \"#utility.yul\":3380:3381   */\n      dup3\n        /* \"#utility.yul\":3371:3378   */\n      dup3\n        /* \"#utility.yul\":3367:3382   */\n      div\n        /* \"#utility.yul\":3364:3365   */\n      dup5\n        /* \"#utility.yul\":3361:3383   */\n      eq\n        /* \"#utility.yul\":3341:3342   */\n      dup4\n        /* \"#utility.yul\":3334:3343   */\n      iszero\n        /* \"#utility.yul\":3314:3397   */\n      or\n        /* \"#utility.yul\":3291:3430   */\n      tag_85\n      jumpi\n        /* \"#utility.yul\":3410:3428   */\n      tag_86\n      tag_42\n      jump\t// in\n    tag_86:\n        /* \"#utility.yul\":3291:3430   */\n    tag_85:\n        /* \"#utility.yul\":3075:3437   */\n      pop\n        /* \"#utility.yul\":3027:3437   */\n      swap3\n      swap2\n      pop\n      pop\n      jump\t// out\n        /* \"#utility.yul\":3443:3623   */\n    tag_43:\n        /* \"#utility.yul\":3491:3568   */\n      0x4e487b7100000000000000000000000000000000000000000000000000000000\n        /* \"#utility.yul\":3488:3489   */\n      0x00\n        /* \"#utility.yul\":3481:3569   */\n      mstore\n        /* \"#utility.yul\":3588:3592   */\n      0x12\n        /* \"#utility.yul\":3585:3586   */\n      0x04\n        /* \"#utility.yul\":3578:3593   */\n      mstore\n        /* \"#utility.yul\":3612:3616   */\n      0x24\n        /* \"#utility.yul\":3609:3610   */\n      0x00\n        /* \"#utility.yul\":3602:3617   */\n      revert\n        /* \"#utility.yul\":3629:3814   */\n    tag_32:\n        /* \"#utility.yul\":3669:3670   */\n      0x00\n        /* \"#utility.yul\":3686:3706   */\n      tag_89\n        /* \"#utility.yul\":3704:3705   */\n      dup3\n        /* \"#utility.yul\":3686:3706   */\n      tag_40\n      jump\t// in\n    tag_89:\n        /* \"#utility.yul\":3681:3706   */\n      swap2\n      pop\n        /* \"#utility.yul\":3720:3740   */\n      tag_90\n        /* \"#utility.yul\":3738:3739   */\n      dup4\n        /* \"#utility.yul\":3720:3740   */\n      tag_40\n      jump\t// in\n    tag_90:\n        /* \"#utility.yul\":3715:3740   */\n      swap3\n      pop\n        /* \"#utility.yul\":3759:3760   */\n      dup3\n        /* \"#utility.yul\":3749:3784   */\n      tag_91\n      jumpi\n        /* \"#utility.yul\":3764:3782   */\n      tag_92\n      tag_43\n      jump\t// in\n    tag_92:\n        /* \"#utility.yul\":3749:3784   */\n    tag_91:\n        /* \"#utility.yul\":3806:3807   */\n      dup3\n        /* \"#utility.yul\":3803:3804   */\n      dup3\n        /* \"#utility.yul\":3799:3808   */\n      div\n        /* \"#utility.yul\":3794:3808   */\n      swap1\n      pop\n        /* \"#utility.yul\":3629:3814   */\n      swap3\n      swap2\n      pop\n      pop\n      jump\t// out\n        /* \"#utility.yul\":3820:3996   */\n    tag_34:\n        /* \"#utility.yul\":3852:3853   */\n      0x00\n        /* \"#utility.yul\":3869:3889   */\n      tag_94\n        /* \"#utility.yul\":3887:3888   */\n      dup3\n        /* \"#utility.yul\":3869:3889   */\n      tag_40\n      jump\t// in\n    tag_94:\n        /* \"#utility.yul\":3864:3889   */\n      swap2\n      pop\n        /* \"#utility.yul\":3903:3923   */\n      tag_95\n        /* \"#utility.yul\":3921:3922   */\n      dup4\n        /* \"#utility.yul\":3903:3923   */\n      tag_40\n      jump\t// in\n    tag_95:\n        /* \"#utility.yul\":3898:3923   */\n      swap3\n      pop\n        /* \"#utility.yul\":3942:3943   */\n      dup3\n        /* \"#utility.yul\":3932:3967   */\n      tag_96\n      jumpi\n        /* \"#utility.yul\":3947:3965   */\n      tag_97\n      tag_43\n      jump\t// in\n    tag_97:\n        /* \"#utility.yul\":3932:3967   */\n    tag_96:\n        /* \"#utility.yul\":3988:3989   */\n      dup3\n        /* \"#utility.yul\":3985:3986   */\n      dup3\n        /* \"#utility.yul\":3981:3990   */\n      mod\n        /* \"#utility.yul\":3976:3990   */\n      swap1\n      pop\n        /* \"#utility.yul\":3820:3996   */\n      swap3\n      swap2\n      pop\n      pop\n      jump\t// out\n\n    auxdata: 0xa2646970667358221220efbba34a9fa2f8463fb89995ce9d355032c4c954564bf7d6c4405cd93aa2800a64736f6c634300081a0033\n}\n",
				"bytecode": {
					"linkReferences": {},
					"object": "6080604052600a5f5560026001556014600255348015601c575f80fd5b506104be8061002a5f395ff3fe608060405234801561000f575f80fd5b506004361061004a575f3560e01c806346d46df21461004e57806367e919b614610071578063980a67fd1461008f578063bd0deae5146100b1575b5f80fd5b6100566100d1565b60405161006896959493929190610211565b60405180910390f35b610079610130565b6040516100869190610288565b60405180910390f35b610097610135565b6040516100a89594939291906102a1565b60405180910390f35b6100b96101af565b6040516100c8939291906102f2565b60405180910390f35b5f805f805f805f6001545f541490505f6001545f54141590505f6001545f541190505f6001545f541090505f6001545f54101590505f6001545f54111590508585858585859b509b509b509b509b509b50505050505050909192939495565b5f5481565b5f805f805f806001545f5461014a9190610354565b90505f6001545f5461015c9190610387565b90505f6001545f5461016e91906103ba565b90505f6001545f546101809190610428565b90505f6001545f546101929190610458565b905084848484849950995099509950995050505050509091929394565b5f805f8060055f541180156101c657506005600154105b90505f60055f5411806101db57506005600154105b90505f60055f5411159050828282955095509550505050909192565b5f8115159050919050565b61020b816101f7565b82525050565b5f60c0820190506102245f830189610202565b6102316020830188610202565b61023e6040830187610202565b61024b6060830186610202565b6102586080830185610202565b61026560a0830184610202565b979650505050505050565b5f819050919050565b61028281610270565b82525050565b5f60208201905061029b5f830184610279565b92915050565b5f60a0820190506102b45f830188610279565b6102c16020830187610279565b6102ce6040830186610279565b6102db6060830185610279565b6102e86080830184610279565b9695505050505050565b5f6060820190506103055f830186610202565b6103126020830185610202565b61031f6040830184610202565b949350505050565b7f4e487b71000000000000000000000000000000000000000000000000000000005f52601160045260245ffd5b5f61035e82610270565b915061036983610270565b925082820190508082111561038157610380610327565b5b92915050565b5f61039182610270565b915061039c83610270565b92508282039050818111156103b4576103b3610327565b5b92915050565b5f6103c482610270565b91506103cf83610270565b92508282026103dd81610270565b915082820484148315176103f4576103f3610327565b5b5092915050565b7f4e487b71000000000000000000000000000000000000000000000000000000005f52601260045260245ffd5b5f61043282610270565b915061043d83610270565b92508261044d5761044c6103fb565b5b828204905092915050565b5f61046282610270565b915061046d83610270565b92508261047d5761047c6103fb565b5b82820690509291505056fea2646970667358221220efbba34a9fa2f8463fb89995ce9d355032c4c954564bf7d6c4405cd93aa2800a64736f6c634300081a0033",
					"opcodes": "PUSH1 0x80 PUSH1 0x40 MSTORE PUSH1 0xA PUSH0 SSTORE PUSH1 0x2 PUSH1 0x1 SSTORE PUSH1 0x14 PUSH1 0x2 SSTORE CALLVALUE DUP1 ISZERO PUSH1 0x1C JUMPI PUSH0 DUP1 REVERT JUMPDEST POP PUSH2 0x4BE DUP1 PUSH2 0x2A PUSH0 CODECOPY PUSH0 RETURN INVALID PUSH1 0x80 PUSH1 0x40 MSTORE CALLVALUE DUP1 ISZERO PUSH2 0xF JUMPI PUSH0 DUP1 REVERT JUMPDEST POP PUSH1 0x4 CALLDATASIZE LT PUSH2 0x4A JUMPI PUSH0 CALLDATALOAD PUSH1 0xE0 SHR DUP1 PUSH4 0x46D46DF2 EQ PUSH2 0x4E JUMPI DUP1 PUSH4 0x67E919B6 EQ PUSH2 0x71 JUMPI DUP1 PUSH4 0x980A67FD EQ PUSH2 0x8F JUMPI DUP1 PUSH4 0xBD0DEAE5 EQ PUSH2 0xB1 JUMPI JUMPDEST PUSH0 DUP1 REVERT JUMPDEST PUSH2 0x56 PUSH2 0xD1 JUMP JUMPDEST PUSH1 0x40 MLOAD PUSH2 0x68 SWAP7 SWAP6 SWAP5 SWAP4 SWAP3 SWAP2 SWAP1 PUSH2 0x211 JUMP JUMPDEST PUSH1 0x40 MLOAD DUP1 SWAP2 SUB SWAP1 RETURN JUMPDEST PUSH2 0x79 PUSH2 0x130 JUMP JUMPDEST PUSH1 0x40 MLOAD PUSH2 0x86 SWAP2 SWAP1 PUSH2 0x288 JUMP JUMPDEST PUSH1 0x40 MLOAD DUP1 SWAP2 SUB SWAP1 RETURN JUMPDEST PUSH2 0x97 PUSH2 0x135 JUMP JUMPDEST PUSH1 0x40 MLOAD PUSH2 0xA8 SWAP6 SWAP5 SWAP4 SWAP3 SWAP2 SWAP1 PUSH2 0x2A1 JUMP JUMPDEST PUSH1 0x40 MLOAD DUP1 SWAP2 SUB SWAP1 RETURN JUMPDEST PUSH2 0xB9 PUSH2 0x1AF JUMP JUMPDEST PUSH1 0x40 MLOAD PUSH2 0xC8 SWAP4 SWAP3 SWAP2 SWAP1 PUSH2 0x2F2 JUMP JUMPDEST PUSH1 0x40 MLOAD DUP1 SWAP2 SUB SWAP1 RETURN JUMPDEST PUSH0 DUP1 PUSH0 DUP1 PUSH0 DUP1 PUSH0 PUSH1 0x1 SLOAD PUSH0 SLOAD EQ SWAP1 POP PUSH0 PUSH1 0x1 SLOAD PUSH0 SLOAD EQ ISZERO SWAP1 POP PUSH0 PUSH1 0x1 SLOAD PUSH0 SLOAD GT SWAP1 POP PUSH0 PUSH1 0x1 SLOAD PUSH0 SLOAD LT SWAP1 POP PUSH0 PUSH1 0x1 SLOAD PUSH0 SLOAD LT ISZERO SWAP1 POP PUSH0 PUSH1 0x1 SLOAD PUSH0 SLOAD GT ISZERO SWAP1 POP DUP6 DUP6 DUP6 DUP6 DUP6 DUP6 SWAP12 POP SWAP12 POP SWAP12 POP SWAP12 POP SWAP12 POP SWAP12 POP POP POP POP POP POP POP SWAP1 SWAP2 SWAP3 SWAP4 SWAP5 SWAP6 JUMP JUMPDEST PUSH0 SLOAD DUP2 JUMP JUMPDEST PUSH0 DUP1 PUSH0 DUP1 PUSH0 DUP1 PUSH1 0x1 SLOAD PUSH0 SLOAD PUSH2 0x14A SWAP2 SWAP1 PUSH2 0x354 JUMP JUMPDEST SWAP1 POP PUSH0 PUSH1 0x1 SLOAD PUSH0 SLOAD PUSH2 0x15C SWAP2 SWAP1 PUSH2 0x387 JUMP JUMPDEST SWAP1 POP PUSH0 PUSH1 0x1 SLOAD PUSH0 SLOAD PUSH2 0x16E SWAP2 SWAP1 PUSH2 0x3BA JUMP JUMPDEST SWAP1 POP PUSH0 PUSH1 0x1 SLOAD PUSH0 SLOAD PUSH2 0x180 SWAP2 SWAP1 PUSH2 0x428 JUMP JUMPDEST SWAP1 POP PUSH0 PUSH1 0x1 SLOAD PUSH0 SLOAD PUSH2 0x192 SWAP2 SWAP1 PUSH2 0x458 JUMP JUMPDEST SWAP1 POP DUP5 DUP5 DUP5 DUP5 DUP5 SWAP10 POP SWAP10 POP SWAP10 POP SWAP10 POP SWAP10 POP POP POP POP POP POP SWAP1 SWAP2 SWAP3 SWAP4 SWAP5 JUMP JUMPDEST PUSH0 DUP1 PUSH0 DUP1 PUSH1 0x5 PUSH0 SLOAD GT DUP1 ISZERO PUSH2 0x1C6 JUMPI POP PUSH1 0x5 PUSH1 0x1 SLOAD LT JUMPDEST SWAP1 POP PUSH0 PUSH1 0x5 PUSH0 SLOAD GT DUP1 PUSH2 0x1DB JUMPI POP PUSH1 0x5 PUSH1 0x1 SLOAD LT JUMPDEST SWAP1 POP PUSH0 PUSH1 0x5 PUSH0 SLOAD GT ISZERO SWAP1 POP DUP3 DUP3 DUP3 SWAP6 POP SWAP6 POP SWAP6 POP POP POP POP SWAP1 SWAP2 SWAP3 JUMP JUMPDEST PUSH0 DUP2 ISZERO ISZERO SWAP1 POP SWAP2 SWAP1 POP JUMP JUMPDEST PUSH2 0x20B DUP2 PUSH2 0x1F7 JUMP JUMPDEST DUP3 MSTORE POP POP JUMP JUMPDEST PUSH0 PUSH1 0xC0 DUP3 ADD SWAP1 POP PUSH2 0x224 PUSH0 DUP4 ADD DUP10 PUSH2 0x202 JUMP JUMPDEST PUSH2 0x231 PUSH1 0x20 DUP4 ADD DUP9 PUSH2 0x202 JUMP JUMPDEST PUSH2 0x23E PUSH1 0x40 DUP4 ADD DUP8 PUSH2 0x202 JUMP JUMPDEST PUSH2 0x24B PUSH1 0x60 DUP4 ADD DUP7 PUSH2 0x202 JUMP JUMPDEST PUSH2 0x258 PUSH1 0x80 DUP4 ADD DUP6 PUSH2 0x202 JUMP JUMPDEST PUSH2 0x265 PUSH1 0xA0 DUP4 ADD DUP5 PUSH2 0x202 JUMP JUMPDEST SWAP8 SWAP7 POP POP POP POP POP POP POP JUMP JUMPDEST PUSH0 DUP2 SWAP1 POP SWAP2 SWAP1 POP JUMP JUMPDEST PUSH2 0x282 DUP2 PUSH2 0x270 JUMP JUMPDEST DUP3 MSTORE POP POP JUMP JUMPDEST PUSH0 PUSH1 0x20 DUP3 ADD SWAP1 POP PUSH2 0x29B PUSH0 DUP4 ADD DUP5 PUSH2 0x279 JUMP JUMPDEST SWAP3 SWAP2 POP POP JUMP JUMPDEST PUSH0 PUSH1 0xA0 DUP3 ADD SWAP1 POP PUSH2 0x2B4 PUSH0 DUP4 ADD DUP9 PUSH2 0x279 JUMP JUMPDEST PUSH2 0x2C1 PUSH1 0x20 DUP4 ADD DUP8 PUSH2 0x279 JUMP JUMPDEST PUSH2 0x2CE PUSH1 0x40 DUP4 ADD DUP7 PUSH2 0x279 JUMP JUMPDEST PUSH2 0x2DB PUSH1 0x60 DUP4 ADD DUP6 PUSH2 0x279 JUMP JUMPDEST PUSH2 0x2E8 PUSH1 0x80 DUP4 ADD DUP5 PUSH2 0x279 JUMP JUMPDEST SWAP7 SWAP6 POP POP POP POP POP POP JUMP JUMPDEST PUSH0 PUSH1 0x60 DUP3 ADD SWAP1 POP PUSH2 0x305 PUSH0 DUP4 ADD DUP7 PUSH2 0x202 JUMP JUMPDEST PUSH2 0x312 PUSH1 0x20 DUP4 ADD DUP6 PUSH2 0x202 JUMP JUMPDEST PUSH2 0x31F PUSH1 0x40 DUP4 ADD DUP5 PUSH2 0x202 JUMP JUMPDEST SWAP5 SWAP4 POP POP POP POP JUMP JUMPDEST PUSH32 0x4E487B7100000000000000000000000000000000000000000000000000000000 PUSH0 MSTORE PUSH1 0x11 PUSH1 0x4 MSTORE PUSH1 0x24 PUSH0 REVERT JUMPDEST PUSH0 PUSH2 0x35E DUP3 PUSH2 0x270 JUMP JUMPDEST SWAP2 POP PUSH2 0x369 DUP4 PUSH2 0x270 JUMP JUMPDEST SWAP3 POP DUP3 DUP3 ADD SWAP1 POP DUP1 DUP3 GT ISZERO PUSH2 0x381 JUMPI PUSH2 0x380 PUSH2 0x327 JUMP JUMPDEST JUMPDEST SWAP3 SWAP2 POP POP JUMP JUMPDEST PUSH0 PUSH2 0x391 DUP3 PUSH2 0x270 JUMP JUMPDEST SWAP2 POP PUSH2 0x39C DUP4 PUSH2 0x270 JUMP JUMPDEST SWAP3 POP DUP3 DUP3 SUB SWAP1 POP DUP2 DUP2 GT ISZERO PUSH2 0x3B4 JUMPI PUSH2 0x3B3 PUSH2 0x327 JUMP JUMPDEST JUMPDEST SWAP3 SWAP2 POP POP JUMP JUMPDEST PUSH0 PUSH2 0x3C4 DUP3 PUSH2 0x270 JUMP JUMPDEST SWAP2 POP PUSH2 0x3CF DUP4 PUSH2 0x270 JUMP JUMPDEST SWAP3 POP DUP3 DUP3 MUL PUSH2 0x3DD DUP2 PUSH2 0x270 JUMP JUMPDEST SWAP2 POP DUP3 DUP3 DIV DUP5 EQ DUP4 ISZERO OR PUSH2 0x3F4 JUMPI PUSH2 0x3F3 PUSH2 0x327 JUMP JUMPDEST JUMPDEST POP SWAP3 SWAP2 POP POP JUMP JUMPDEST PUSH32 0x4E487B7100000000000000000000000000000000000000000000000000000000 PUSH0 MSTORE PUSH1 0x12 PUSH1 0x4 MSTORE PUSH1 0x24 PUSH0 REVERT JUMPDEST PUSH0 PUSH2 0x432 DUP3 PUSH2 0x270 JUMP JUMPDEST SWAP2 POP PUSH2 0x43D DUP4 PUSH2 0x270 JUMP JUMPDEST SWAP3 POP DUP3 PUSH2 0x44D JUMPI PUSH2 0x44C PUSH2 0x3FB JUMP JUMPDEST JUMPDEST DUP3 DUP3 DIV SWAP1 POP SWAP3 SWAP2 POP POP JUMP JUMPDEST PUSH0 PUSH2 0x462 DUP3 PUSH2 0x270 JUMP JUMPDEST SWAP2 POP PUSH2 0x46D DUP4 PUSH2 0x270 JUMP JUMPDEST SWAP3 POP DUP3 PUSH2 0x47D JUMPI PUSH2 0x47C PUSH2 0x3FB JUMP JUMPDEST JUMPDEST DUP3 DUP3 MOD SWAP1 POP SWAP3 SWAP2 POP POP JUMP INVALID LOG2 PUSH5 0x6970667358 0x22 SLT KECCAK256 0xEF 0xBB LOG3 BLOBBASEFEE SWAP16 LOG2 0xF8 CHAINID EXTCODEHASH 0xB8 SWAP10 SWAP6 0xCE SWAP14 CALLDATALOAD POP ORIGIN 0xC4 0xC9 SLOAD JUMP 0x4B 0xF7 0xD6 0xC4 BLOCKHASH TLOAD 0xD9 GASPRICE LOG2 DUP1 EXP PUSH5 0x736F6C6343 STOP ADDMOD BYTE STOP CALLER "
				},
				"gasEstimates": {
					"creation": {
						"codeDepositCost": "242800",
						"executionCost": "66596",
						"totalCost": "309396"
					},
					"external": {
						"LogicalOperator()": "infinite",
						"arithmetic()": "infinite",
						"relational()": "infinite",
						"var1()": "2424"
					}
				},
				"methodIdentifiers": {
					"LogicalOperator()": "bd0deae5",
					"arithmetic()": "980a67fd",
					"relational()": "46d46df2",
					"var1()": "67e919b6"
				}
			},
			"storageLayout": {
				"storage": [
					{
						"astId": 4,
						"contract": "contracts/assignment.sol:Base",
						"label": "var1",
						"offset": 0,
						"slot": "0",
						"type": "t_uint256"
					},
					{
						"astId": 7,
						"contract": "contracts/assignment.sol:Base",
						"label": "var2",
						"offset": 0,
						"slot": "1",
						"type": "t_uint256"
					},
					{
						"astId": 10,
						"contract": "contracts/assignment.sol:Base",
						"label": "var3",
						"offset": 0,
						"slot": "2",
						"type": "t_uint256"
					}
				],
				"types": {
					"t_uint256": {
						"encoding": "inplace",
						"label": "uint256",
						"numberOfBytes": "32"
					}
				}
			},
			"userdoc": {
				"kind": "user",
				"methods": {},
				"version": 1
			}
		}
	}
}