{
	"data": {
		"bytecode": {
			"linkReferences": {},
			"object": "6080604052600a5f5560026001556014600255348015601c575f80fd5b506104be8061002a5f395ff3fe608060405234801561000f575f80fd5b506004361061004a575f3560e01c806346d46df21461004e57806367e919b614610071578063980a67fd1461008f578063bd0deae5146100b1575b5f80fd5b6100566100d1565b60405161006896959493929190610211565b60405180910390f35b610079610130565b6040516100869190610288565b60405180910390f35b610097610135565b6040516100a89594939291906102a1565b60405180910390f35b6100b96101af565b6040516100c8939291906102f2565b60405180910390f35b5f805f805f805f6001545f541490505f6001545f54141590505f6001545f541190505f6001545f541090505f6001545f54101590505f6001545f54111590508585858585859b509b509b509b509b509b50505050505050909192939495565b5f5481565b5f805f805f806001545f5461014a9190610354565b90505f6001545f5461015c9190610387565b90505f6001545f5461016e91906103ba565b90505f6001545f546101809190610428565b90505f6001545f546101929190610458565b905084848484849950995099509950995050505050509091929394565b5f805f8060055f541180156101c657506005600154105b90505f60055f5411806101db57506005600154105b90505f60055f5411159050828282955095509550505050909192565b5f8115159050919050565b61020b816101f7565b82525050565b5f60c0820190506102245f830189610202565b6102316020830188610202565b61023e6040830187610202565b61024b6060830186610202565b6102586080830185610202565b61026560a0830184610202565b979650505050505050565b5f819050919050565b61028281610270565b82525050565b5f60208201905061029b5f830184610279565b92915050565b5f60a0820190506102b45f830188610279565b6102c16020830187610279565b6102ce6040830186610279565b6102db6060830185610279565b6102e86080830184610279565b9695505050505050565b5f6060820190506103055f830186610202565b6103126020830185610202565b61031f6040830184610202565b949350505050565b7f4e487b71000000000000000000000000000000000000000000000000000000005f52601160045260245ffd5b5f61035e82610270565b915061036983610270565b925082820190508082111561038157610380610327565b5b92915050565b5f61039182610270565b915061039c83610270565b92508282039050818111156103b4576103b3610327565b5b92915050565b5f6103c482610270565b91506103cf83610270565b92508282026103dd81610270565b915082820484148315176103f4576103f3610327565b5b5092915050565b7f4e487b71000000000000000000000000000000000000000000000000000000005f52601260045260245ffd5b5f61043282610270565b915061043d83610270565b92508261044d5761044c6103fb565b5b828204905092915050565b5f61046282610270565b915061046d83610270565b92508261047d5761047c6103fb565b5b82820690509291505056fea2646970667358221220efbba34a9fa2f8463fb89995ce9d355032c4c954564bf7d6c4405cd93aa2800a64736f6c634300081a0033",
			"opcodes": "PUSH1 0x80 PUSH1 0x40 MSTORE PUSH1 0xA PUSH0 SSTORE PUSH1 0x2 PUSH1 0x1 SSTORE PUSH1 0x14 PUSH1 0x2 SSTORE CALLVALUE DUP1 ISZERO PUSH1 0x1C JUMPI PUSH0 DUP1 REVERT JUMPDEST POP PUSH2 0x4BE DUP1 PUSH2 0x2A PUSH0 CODECOPY PUSH0 RETURN INVALID PUSH1 0x80 PUSH1 0x40 MSTORE CALLVALUE DUP1 ISZERO PUSH2 0xF JUMPI PUSH0 DUP1 REVERT JUMPDEST POP PUSH1 0x4 CALLDATASIZE LT PUSH2 0x4A JUMPI PUSH0 CALLDATALOAD PUSH1 0xE0 SHR DUP1 PUSH4 0x46D46DF2 EQ PUSH2 0x4E JUMPI DUP1 PUSH4 0x67E919B6 EQ PUSH2 0x71 JUMPI DUP1 PUSH4 0x980A67FD EQ PUSH2 0x8F JUMPI DUP1 PUSH4 0xBD0DEAE5 EQ PUSH2 0xB1 JUMPI JUMPDEST PUSH0 DUP1 REVERT JUMPDEST PUSH2 0x56 PUSH2 0xD1 JUMP JUMPDEST PUSH1 0x40 MLOAD PUSH2 0x68 SWAP7 SWAP6 SWAP5 SWAP4 SWAP3 SWAP2 SWAP1 PUSH2 0x211 JUMP JUMPDEST PUSH1 0x40 MLOAD DUP1 SWAP2 SUB SWAP1 RETURN JUMPDEST PUSH2 0x79 PUSH2 0x130 JUMP JUMPDEST PUSH1 0x40 MLOAD PUSH2 0x86 SWAP2 SWAP1 PUSH2 0x288 JUMP JUMPDEST PUSH1 0x40 MLOAD DUP1 SWAP2 SUB SWAP1 RETURN JUMPDEST PUSH2 0x97 PUSH2 0x135 JUMP JUMPDEST PUSH1 0x40 MLOAD PUSH2 0xA8 SWAP6 SWAP5 SWAP4 SWAP3 SWAP2 SWAP1 PUSH2 0x2A1 JUMP JUMPDEST PUSH1 0x40 MLOAD DUP1 SWAP2 SUB SWAP1 RETURN JUMPDEST PUSH2 0xB9 PUSH2 0x1AF JUMP JUMPDEST PUSH1 0x40 MLOAD PUSH2 0xC8 SWAP4 SWAP3 SWAP2 SWAP1 PUSH2 0x2F2 JUMP JUMPDEST PUSH1 0x40 MLOAD DUP1 SWAP2 SUB SWAP1 RETURN JUMPDEST PUSH0 DUP1 PUSH0 DUP1 PUSH0 DUP1 PUSH0 PUSH1 0x1 SLOAD PUSH0 SLOAD EQ SWAP1 POP PUSH0 PUSH1 0x1 SLOAD PUSH0 SLOAD EQ ISZERO SWAP1 POP PUSH0 PUSH1 0x1 SLOAD PUSH0 SLOAD GT SWAP1 POP PUSH0 PUSH1 0x1 SLOAD PUSH0 SLOAD LT SWAP1 POP PUSH0 PUSH1 0x1 SLOAD PUSH0 SLOAD LT ISZERO SWAP1 POP PUSH0 PUSH1 0x1 SLOAD PUSH0 SLOAD GT ISZERO SWAP1 POP DUP6 DUP6 DUP6 DUP6 DUP6 DUP6 SWAP12 POP SWAP12 POP SWAP12 POP SWAP12 POP SWAP12 POP SWAP12 POP POP POP POP POP POP POP SWAP1 SWAP2 SWAP3 SWAP4 SWAP5 SWAP6 JUMP JUMPDEST PUSH0 SLOAD DUP2 JUMP JUMPDEST PUSH0 DUP1 PUSH0 DUP1 PUSH0 DUP1 PUSH1 0x1 SLOAD PUSH0 SLOAD PUSH2 0x14A SWAP2 SWAP1 PUSH2 0x354 JUMP JUMPDEST SWAP1 POP PUSH0 PUSH1 0x1 SLOAD PUSH0 SLOAD PUSH2 0x15C SWAP2 SWAP1 PUSH2 0x387 JUMP JUMPDEST SWAP1 POP PUSH0 PUSH1 0x1 SLOAD PUSH0 SLOAD PUSH2 0x16E SWAP2 SWAP1 PUSH2 0x3BA JUMP JUMPDEST SWAP1 POP PUSH0 PUSH1 0x1 SLOAD PUSH0 SLOAD PUSH2 0x180 SWAP2 SWAP1 PUSH2 0x428 JUMP JUMPDEST SWAP1 POP PUSH0 PUSH1 0x1 SLOAD PUSH0 SLOAD PUSH2 0x192 SWAP2 SWAP1 PUSH2 0x458 JUMP JUMPDEST SWAP1 POP DUP5 DUP5 DUP5 DUP5 DUP5 SWAP10 POP SWAP10 POP SWAP10 POP SWAP10 POP SWAP10 POP POP POP POP POP POP SWAP1 SWAP2 SWAP3 SWAP4 SWAP5 JUMP JUMPDEST PUSH0 DUP1 PUSH0 DUP1 PUSH1 0x5 PUSH0 SLOAD GT DUP1 ISZERO PUSH2 0x1C6 JUMPI POP PUSH1 0x5 PUSH1 0x1 SLOAD LT JUMPDEST SWAP1 POP PUSH0 PUSH1 0x5 PUSH0 SLOAD GT DUP1 PUSH2 0x1DB JUMPI POP PUSH1 0x5 PUSH1 0x1 SLOAD LT JUMPDEST SWAP1 POP PUSH0 PUSH1 0x5 PUSH0 SLOAD GT ISZERO SWAP1 POP DUP3 DUP3 DUP3 SWAP6 POP SWAP6 POP SWAP6 POP POP POP POP SWAP1 SWAP2 SWAP3 JUMP JUMPDEST PUSH0 DUP2 ISZERO ISZERO SWAP1 POP SWAP2 SWAP1 POP JUMP JUMPDEST PUSH2 0x20B DUP2 PUSH2 0x1F7 JUMP JUMPDEST DUP3 MSTORE POP POP JUMP JUMPDEST PUSH0 PUSH1 0xC0 DUP3 ADD SWAP1 POP PUSH2 0x224 PUSH0 DUP4 ADD DUP10 PUSH2 0x202 JUMP JUMPDEST PUSH2 0x231 PUSH1 0x20 DUP4 ADD DUP9 PUSH2 0x202 JUMP JUMPDEST PUSH2 0x23E PUSH1 0x40 DUP4 ADD DUP8 PUSH2 0x202 JUMP JUMPDEST PUSH2 0x24B PUSH1 0x60 DUP4 ADD DUP7 PUSH2 0x202 JUMP JUMPDEST PUSH2 0x258 PUSH1 0x80 DUP4 ADD DUP6 PUSH2 0x202 JUMP JUMPDEST PUSH2 0x265 PUSH1 0xA0 DUP4 ADD DUP5 PUSH2 0x202 JUMP JUMPDEST SWAP8 SWAP7 POP POP POP POP POP POP POP JUMP JUMPDEST PUSH0 DUP2 SWAP1 POP SWAP2 SWAP1 POP JUMP JUMPDEST PUSH2 0x282 DUP2 PUSH2 0x270 JUMP JUMPDEST DUP3 MSTORE POP POP JUMP JUMPDEST PUSH0 PUSH1 0x20 DUP3 ADD SWAP1 POP PUSH2 0x29B PUSH0 DUP4 ADD DUP5 PUSH2 0x279 JUMP JUMPDEST SWAP3 SWAP2 POP POP JUMP JUMPDEST PUSH0 PUSH1 0xA0 DUP3 ADD SWAP1 POP PUSH2 0x2B4 PUSH0 DUP4 ADD DUP9 PUSH2 0x279 JUMP JUMPDEST PUSH2 0x2C1 PUSH1 0x20 DUP4 ADD DUP8 PUSH2 0x279 JUMP JUMPDEST PUSH2 0x2CE PUSH1 0x40 DUP4 ADD DUP7 PUSH2 0x279 JUMP JUMPDEST PUSH2 0x2DB PUSH1 0x60 DUP4 ADD DUP6 PUSH2 0x279 JUMP JUMPDEST PUSH2 0x2E8 PUSH1 0x80 DUP4 ADD DUP5 PUSH2 0x279 JUMP JUMPDEST SWAP7 SWAP6 POP POP POP POP POP POP JUMP JUMPDEST PUSH0 PUSH1 0x60 DUP3 ADD SWAP1 POP PUSH2 0x305 PUSH0 DUP4 ADD DUP7 PUSH2 0x202 JUMP JUMPDEST PUSH2 0x312 PUSH1 0x20 DUP4 ADD DUP6 PUSH2 0x202 JUMP JUMPDEST PUSH2 0x31F PUSH1 0x40 DUP4 ADD DUP5 PUSH2 0x202 JUMP JUMPDEST SWAP5 SWAP4 POP POP POP POP JUMP JUMPDEST PUSH32 0x4E487B7100000000000000000000000000000000000000000000000000000000 PUSH0 MSTORE PUSH1 0x11 PUSH1 0x4 MSTORE PUSH1 0x24 PUSH0 REVERT JUMPDEST PUSH0 PUSH2 0x35E DUP3 PUSH2 0x270 JUMP JUMPDEST SWAP2 POP PUSH2 0x369 DUP4 PUSH2 0x270 JUMP JUMPDEST SWAP3 POP DUP3 DUP3 ADD SWAP1 POP DUP1 DUP3 GT ISZERO PUSH2 0x381 JUMPI PUSH2 0x380 PUSH2 0x327 JUMP JUMPDEST JUMPDEST SWAP3 SWAP2 POP POP JUMP JUMPDEST PUSH0 PUSH2 0x391 DUP3 PUSH2 0x270 JUMP JUMPDEST SWAP2 POP PUSH2 0x39C DUP4 PUSH2 0x270 JUMP JUMPDEST SWAP3 POP DUP3 DUP3 SUB SWAP1 POP DUP2 DUP2 GT ISZERO PUSH2 0x3B4 JUMPI PUSH2 0x3B3 PUSH2 0x327 JUMP JUMPDEST JUMPDEST SWAP3 SWAP2 POP POP JUMP JUMPDEST PUSH0 PUSH2 0x3C4 DUP3 PUSH2 0x270 JUMP JUMPDEST SWAP2 POP PUSH2 0x3CF DUP4 PUSH2 0x270 JUMP JUMPDEST SWAP3 POP DUP3 DUP3 MUL PUSH2 0x3DD DUP2 PUSH2 0x270 JUMP JUMPDEST SWAP2 POP DUP3 DUP3 DIV DUP5 EQ DUP4 ISZERO OR PUSH2 0x3F4 JUMPI PUSH2 0x3F3 PUSH2 0x327 JUMP JUMPDEST JUMPDEST POP SWAP3 SWAP2 POP POP JUMP JUMPDEST PUSH32 0x4E487B7100000000000000000000000000000000000000000000000000000000 PUSH0 MSTORE PUSH1 0x12 PUSH1 0x4 MSTORE PUSH1 0x24 PUSH0 REVERT JUMPDEST PUSH0 PUSH2 0x432 DUP3 PUSH2 0x270 JUMP JUMPDEST SWAP2 POP PUSH2 0x43D DUP4 PUSH2 0x270 JUMP JUMPDEST SWAP3 POP DUP3 PUSH2 0x44D JUMPI PUSH2 0x44C PUSH2 0x3FB JUMP JUMPDEST JUMPDEST DUP3 DUP3 DIV SWAP1 POP SWAP3 SWAP2 POP POP JUMP JUMPDEST PUSH0 PUSH2 0x462 DUP3 PUSH2 0x270 JUMP JUMPDEST SWAP2 POP PUSH2 0x46D DUP4 PUSH2 0x270 JUMP JUMPDEST SWAP3 POP DUP3 PUSH2 0x47D JUMPI PUSH2 0x47C PUSH2 0x3FB JUMP JUMPDEST JUMPDEST DUP3 DUP3 MOD SWAP1 POP SWAP3 SWAP2 POP POP JUMP INVALID LOG2 PUSH5 0x6970667358 0x22 SLT KECCAK256 0xEF 0xBB LOG3 BLOBBASEFEE SWAP16 LOG2 0xF8 CHAINID EXTCODEHASH 0xB8 SWAP10 SWAP6 0xCE SWAP14 CALLDATALOAD POP ORIGIN 0xC4 0xC9 SLOAD JUMP 0x4B 0xF7 0xD6 0xC4 BLOCKHASH TLOAD 0xD9 GASPRICE LOG2 DUP1 EXP PUSH5 0x736F6C6343 STOP ADDMOD BYTE STOP CALLER "
		},
		"gasEstimates": {
			"creation": {
				"codeDepositCost": "242800",
				"executionCost": "66596",
				"totalCost": "309396"
			},
			"external": {
				"LogicalOperator()": "infinite",
				"arithmetic()": "infinite",
				"relational()": "infinite",
				"var1()": "2424"
			}
		},
		"methodIdentifiers": {
			"LogicalOperator()": "bd0deae5",
			"arithmetic()": "980a67fd",
			"relational()": "46d46df2",
			"var1()": "67e919b6"
		}
	},
	"abi": [
		{
			"inputs": [],
			"name": "LogicalOperator",
			"outputs": [
				{
					"internalType": "bool",
					"name": "",
					"type": "bool"
				},
				{
					"internalType": "bool",
					"name": "",
					"type": "bool"
				},
				{
					"internalType": "bool",
					"name": "",
					"type": "bool"
				}
			],
			"stateMutability": "view",
			"type": "function"
		},
		{
			"inputs": [],
			"name": "arithmetic",
			"outputs": [
				{
					"internalType": "uint256",
					"name": "",
					"type": "uint256"
				},
				{
					"internalType": "uint256",
					"name": "",
					"type": "uint256"
				},
				{
					"internalType": "uint256",
					"name": "",
					"type": "uint256"
				},
				{
					"internalType": "uint256",
					"name": "",
					"type": "uint256"
				},
				{
					"internalType": "uint256",
					"name": "",
					"type": "uint256"
				}
			],
			"stateMutability": "view",
			"type": "function"
		},
		{
			"inputs": [],
			"name": "relational",
			"outputs": [
				{
					"internalType": "bool",
					"name": "",
					"type": "bool"
				},
				{
					"internalType": "bool",
					"name": "",
					"type": "bool"
				},
				{
					"internalType": "bool",
					"name": "",
					"type": "bool"
				},
				{
					"internalType": "bool",
					"name": "",
					"type": "bool"
				},
				{
					"internalType": "bool",
					"name": "",
					"type": "bool"
				},
				{
					"internalType": "bool",
					"name": "",
					"type": "bool"
				}
			],
			"stateMutability": "view",
			"type": "function"
		},
		{
			"inputs": [],
			"name": "var1",
			"outputs": [
				{
					"internalType": "uint256",
					"name": "",
					"type": "uint256"
				}
			],
			"stateMutability": "view",
			"type": "function"
		}
	]
}