{
	"data": {
		"bytecode": {
			"linkReferences": {},
			"object": "6080604052600a5f5560026001553480156017575f80fd5b506104c4806100255f395ff3fe608060405234801561000f575f80fd5b506004361061004a575f3560e01c80631ab06ee51461004e578063507aff571461006a57806367e919b6146100885780636d4ce63c146100a6575b5f80fd5b610068600480360381019061006391906101ec565b6100ca565b005b6100726100db565b60405161007f9190610239565b60405180910390f35b6100906100e1565b60405161009d9190610239565b60405180910390f35b6100ae6100e6565b6040516100c19796959493929190610252565b60405180910390f35b815f81905550806001819055505050565b60015481565b5f5481565b5f805f805f805f6001545f546100fc91906102ec565b6002819055506001545f54610111919061031f565b6003819055506001545f546101269190610352565b6004819055506001545f5461013b91906103c0565b6005819055506001545f5461015091906103f0565b60068190555060015f815461016490610420565b9190508190556007819055505f80815461017d90610447565b919050819055600881905550600254600354600454600554600654600854600754965096509650965096509650965090919293949596565b5f80fd5b5f819050919050565b6101cb816101b9565b81146101d5575f80fd5b50565b5f813590506101e6816101c2565b92915050565b5f8060408385031215610202576102016101b5565b5b5f61020f858286016101d8565b9250506020610220858286016101d8565b9150509250929050565b610233816101b9565b82525050565b5f60208201905061024c5f83018461022a565b92915050565b5f60e0820190506102655f83018a61022a565b610272602083018961022a565b61027f604083018861022a565b61028c606083018761022a565b610299608083018661022a565b6102a660a083018561022a565b6102b360c083018461022a565b98975050505050505050565b7f4e487b71000000000000000000000000000000000000000000000000000000005f52601160045260245ffd5b5f6102f6826101b9565b9150610301836101b9565b9250828201905080821115610319576103186102bf565b5b92915050565b5f610329826101b9565b9150610334836101b9565b925082820390508181111561034c5761034b6102bf565b5b92915050565b5f61035c826101b9565b9150610367836101b9565b9250828202610375816101b9565b9150828204841483151761038c5761038b6102bf565b5b5092915050565b7f4e487b71000000000000000000000000000000000000000000000000000000005f52601260045260245ffd5b5f6103ca826101b9565b91506103d5836101b9565b9250826103e5576103e4610393565b5b828204905092915050565b5f6103fa826101b9565b9150610405836101b9565b92508261041557610414610393565b5b828206905092915050565b5f61042a826101b9565b91505f820361043c5761043b6102bf565b5b600182039050919050565b5f610451826101b9565b91507fffffffffffffffffffffffffffffffffffffffffffffffffffffffffffffffff8203610483576104826102bf565b5b60018201905091905056fea26469706673582212209fd24bb17cd071c6f0e9767336c2fe850853117fce96893e01bfc1f0b11f4e0e64736f6c634300081a0033",
			"opcodes": "PUSH1 0x80 PUSH1 0x40 MSTORE PUSH1 0xA PUSH0 SSTORE PUSH1 0x2 PUSH1 0x1 SSTORE CALLVALUE DUP1 ISZERO PUSH1 0x17 JUMPI PUSH0 DUP1 REVERT JUMPDEST POP PUSH2 0x4C4 DUP1 PUSH2 0x25 PUSH0 CODECOPY PUSH0 RETURN INVALID PUSH1 0x80 PUSH1 0x40 MSTORE CALLVALUE DUP1 ISZERO PUSH2 0xF JUMPI PUSH0 DUP1 REVERT JUMPDEST POP PUSH1 0x4 CALLDATASIZE LT PUSH2 0x4A JUMPI PUSH0 CALLDATALOAD PUSH1 0xE0 SHR DUP1 PUSH4 0x1AB06EE5 EQ PUSH2 0x4E JUMPI DUP1 PUSH4 0x507AFF57 EQ PUSH2 0x6A JUMPI DUP1 PUSH4 0x67E919B6 EQ PUSH2 0x88 JUMPI DUP1 PUSH4 0x6D4CE63C EQ PUSH2 0xA6 JUMPI JUMPDEST PUSH0 DUP1 REVERT JUMPDEST PUSH2 0x68 PUSH1 0x4 DUP1 CALLDATASIZE SUB DUP2 ADD SWAP1 PUSH2 0x63 SWAP2 SWAP1 PUSH2 0x1EC JUMP JUMPDEST PUSH2 0xCA JUMP JUMPDEST STOP JUMPDEST PUSH2 0x72 PUSH2 0xDB JUMP JUMPDEST PUSH1 0x40 MLOAD PUSH2 0x7F SWAP2 SWAP1 PUSH2 0x239 JUMP JUMPDEST PUSH1 0x40 MLOAD DUP1 SWAP2 SUB SWAP1 RETURN JUMPDEST PUSH2 0x90 PUSH2 0xE1 JUMP JUMPDEST PUSH1 0x40 MLOAD PUSH2 0x9D SWAP2 SWAP1 PUSH2 0x239 JUMP JUMPDEST PUSH1 0x40 MLOAD DUP1 SWAP2 SUB SWAP1 RETURN JUMPDEST PUSH2 0xAE PUSH2 0xE6 JUMP JUMPDEST PUSH1 0x40 MLOAD PUSH2 0xC1 SWAP8 SWAP7 SWAP6 SWAP5 SWAP4 SWAP3 SWAP2 SWAP1 PUSH2 0x252 JUMP JUMPDEST PUSH1 0x40 MLOAD DUP1 SWAP2 SUB SWAP1 RETURN JUMPDEST DUP2 PUSH0 DUP2 SWAP1 SSTORE POP DUP1 PUSH1 0x1 DUP2 SWAP1 SSTORE POP POP POP JUMP JUMPDEST PUSH1 0x1 SLOAD DUP2 JUMP JUMPDEST PUSH0 SLOAD DUP2 JUMP JUMPDEST PUSH0 DUP1 PUSH0 DUP1 PUSH0 DUP1 PUSH0 PUSH1 0x1 SLOAD PUSH0 SLOAD PUSH2 0xFC SWAP2 SWAP1 PUSH2 0x2EC JUMP JUMPDEST PUSH1 0x2 DUP2 SWAP1 SSTORE POP PUSH1 0x1 SLOAD PUSH0 SLOAD PUSH2 0x111 SWAP2 SWAP1 PUSH2 0x31F JUMP JUMPDEST PUSH1 0x3 DUP2 SWAP1 SSTORE POP PUSH1 0x1 SLOAD PUSH0 SLOAD PUSH2 0x126 SWAP2 SWAP1 PUSH2 0x352 JUMP JUMPDEST PUSH1 0x4 DUP2 SWAP1 SSTORE POP PUSH1 0x1 SLOAD PUSH0 SLOAD PUSH2 0x13B SWAP2 SWAP1 PUSH2 0x3C0 JUMP JUMPDEST PUSH1 0x5 DUP2 SWAP1 SSTORE POP PUSH1 0x1 SLOAD PUSH0 SLOAD PUSH2 0x150 SWAP2 SWAP1 PUSH2 0x3F0 JUMP JUMPDEST PUSH1 0x6 DUP2 SWAP1 SSTORE POP PUSH1 0x1 PUSH0 DUP2 SLOAD PUSH2 0x164 SWAP1 PUSH2 0x420 JUMP JUMPDEST SWAP2 SWAP1 POP DUP2 SWAP1 SSTORE PUSH1 0x7 DUP2 SWAP1 SSTORE POP PUSH0 DUP1 DUP2 SLOAD PUSH2 0x17D SWAP1 PUSH2 0x447 JUMP JUMPDEST SWAP2 SWAP1 POP DUP2 SWAP1 SSTORE PUSH1 0x8 DUP2 SWAP1 SSTORE POP PUSH1 0x2 SLOAD PUSH1 0x3 SLOAD PUSH1 0x4 SLOAD PUSH1 0x5 SLOAD PUSH1 0x6 SLOAD PUSH1 0x8 SLOAD PUSH1 0x7 SLOAD SWAP7 POP SWAP7 POP SWAP7 POP SWAP7 POP SWAP7 POP SWAP7 POP SWAP7 POP SWAP1 SWAP2 SWAP3 SWAP4 SWAP5 SWAP6 SWAP7 JUMP JUMPDEST PUSH0 DUP1 REVERT JUMPDEST PUSH0 DUP2 SWAP1 POP SWAP2 SWAP1 POP JUMP JUMPDEST PUSH2 0x1CB DUP2 PUSH2 0x1B9 JUMP JUMPDEST DUP2 EQ PUSH2 0x1D5 JUMPI PUSH0 DUP1 REVERT JUMPDEST POP JUMP JUMPDEST PUSH0 DUP2 CALLDATALOAD SWAP1 POP PUSH2 0x1E6 DUP2 PUSH2 0x1C2 JUMP JUMPDEST SWAP3 SWAP2 POP POP JUMP JUMPDEST PUSH0 DUP1 PUSH1 0x40 DUP4 DUP6 SUB SLT ISZERO PUSH2 0x202 JUMPI PUSH2 0x201 PUSH2 0x1B5 JUMP JUMPDEST JUMPDEST PUSH0 PUSH2 0x20F DUP6 DUP3 DUP7 ADD PUSH2 0x1D8 JUMP JUMPDEST SWAP3 POP POP PUSH1 0x20 PUSH2 0x220 DUP6 DUP3 DUP7 ADD PUSH2 0x1D8 JUMP JUMPDEST SWAP2 POP POP SWAP3 POP SWAP3 SWAP1 POP JUMP JUMPDEST PUSH2 0x233 DUP2 PUSH2 0x1B9 JUMP JUMPDEST DUP3 MSTORE POP POP JUMP JUMPDEST PUSH0 PUSH1 0x20 DUP3 ADD SWAP1 POP PUSH2 0x24C PUSH0 DUP4 ADD DUP5 PUSH2 0x22A JUMP JUMPDEST SWAP3 SWAP2 POP POP JUMP JUMPDEST PUSH0 PUSH1 0xE0 DUP3 ADD SWAP1 POP PUSH2 0x265 PUSH0 DUP4 ADD DUP11 PUSH2 0x22A JUMP JUMPDEST PUSH2 0x272 PUSH1 0x20 DUP4 ADD DUP10 PUSH2 0x22A JUMP JUMPDEST PUSH2 0x27F PUSH1 0x40 DUP4 ADD DUP9 PUSH2 0x22A JUMP JUMPDEST PUSH2 0x28C PUSH1 0x60 DUP4 ADD DUP8 PUSH2 0x22A JUMP JUMPDEST PUSH2 0x299 PUSH1 0x80 DUP4 ADD DUP7 PUSH2 0x22A JUMP JUMPDEST PUSH2 0x2A6 PUSH1 0xA0 DUP4 ADD DUP6 PUSH2 0x22A JUMP JUMPDEST PUSH2 0x2B3 PUSH1 0xC0 DUP4 ADD DUP5 PUSH2 0x22A JUMP JUMPDEST SWAP9 SWAP8 POP POP POP POP POP POP POP POP JUMP JUMPDEST PUSH32 0x4E487B7100000000000000000000000000000000000000000000000000000000 PUSH0 MSTORE PUSH1 0x11 PUSH1 0x4 MSTORE PUSH1 0x24 PUSH0 REVERT JUMPDEST PUSH0 PUSH2 0x2F6 DUP3 PUSH2 0x1B9 JUMP JUMPDEST SWAP2 POP PUSH2 0x301 DUP4 PUSH2 0x1B9 JUMP JUMPDEST SWAP3 POP DUP3 DUP3 ADD SWAP1 POP DUP1 DUP3 GT ISZERO PUSH2 0x319 JUMPI PUSH2 0x318 PUSH2 0x2BF JUMP JUMPDEST JUMPDEST SWAP3 SWAP2 POP POP JUMP JUMPDEST PUSH0 PUSH2 0x329 DUP3 PUSH2 0x1B9 JUMP JUMPDEST SWAP2 POP PUSH2 0x334 DUP4 PUSH2 0x1B9 JUMP JUMPDEST SWAP3 POP DUP3 DUP3 SUB SWAP1 POP DUP2 DUP2 GT ISZERO PUSH2 0x34C JUMPI PUSH2 0x34B PUSH2 0x2BF JUMP JUMPDEST JUMPDEST SWAP3 SWAP2 POP POP JUMP JUMPDEST PUSH0 PUSH2 0x35C DUP3 PUSH2 0x1B9 JUMP JUMPDEST SWAP2 POP PUSH2 0x367 DUP4 PUSH2 0x1B9 JUMP JUMPDEST SWAP3 POP DUP3 DUP3 MUL PUSH2 0x375 DUP2 PUSH2 0x1B9 JUMP JUMPDEST SWAP2 POP DUP3 DUP3 DIV DUP5 EQ DUP4 ISZERO OR PUSH2 0x38C JUMPI PUSH2 0x38B PUSH2 0x2BF JUMP JUMPDEST JUMPDEST POP SWAP3 SWAP2 POP POP JUMP JUMPDEST PUSH32 0x4E487B7100000000000000000000000000000000000000000000000000000000 PUSH0 MSTORE PUSH1 0x12 PUSH1 0x4 MSTORE PUSH1 0x24 PUSH0 REVERT JUMPDEST PUSH0 PUSH2 0x3CA DUP3 PUSH2 0x1B9 JUMP JUMPDEST SWAP2 POP PUSH2 0x3D5 DUP4 PUSH2 0x1B9 JUMP JUMPDEST SWAP3 POP DUP3 PUSH2 0x3E5 JUMPI PUSH2 0x3E4 PUSH2 0x393 JUMP JUMPDEST JUMPDEST DUP3 DUP3 DIV SWAP1 POP SWAP3 SWAP2 POP POP JUMP JUMPDEST PUSH0 PUSH2 0x3FA DUP3 PUSH2 0x1B9 JUMP JUMPDEST SWAP2 POP PUSH2 0x405 DUP4 PUSH2 0x1B9 JUMP JUMPDEST SWAP3 POP DUP3 PUSH2 0x415 JUMPI PUSH2 0x414 PUSH2 0x393 JUMP JUMPDEST JUMPDEST DUP3 DUP3 MOD SWAP1 POP SWAP3 SWAP2 POP POP JUMP JUMPDEST PUSH0 PUSH2 0x42A DUP3 PUSH2 0x1B9 JUMP JUMPDEST SWAP2 POP PUSH0 DUP3 SUB PUSH2 0x43C JUMPI PUSH2 0x43B PUSH2 0x2BF JUMP JUMPDEST JUMPDEST PUSH1 0x1 DUP3 SUB SWAP1 POP SWAP2 SWAP1 POP JUMP JUMPDEST PUSH0 PUSH2 0x451 DUP3 PUSH2 0x1B9 JUMP JUMPDEST SWAP2 POP PUSH32 0xFFFFFFFFFFFFFFFFFFFFFFFFFFFFFFFFFFFFFFFFFFFFFFFFFFFFFFFFFFFFFFFF DUP3 SUB PUSH2 0x483 JUMPI PUSH2 0x482 PUSH2 0x2BF JUMP JUMPDEST JUMPDEST PUSH1 0x1 DUP3 ADD SWAP1 POP SWAP2 SWAP1 POP JUMP INVALID LOG2 PUSH5 0x6970667358 0x22 SLT KECCAK256 SWAP16 0xD2 0x4B 0xB1 PUSH29 0xD071C6F0E9767336C2FE850853117FCE96893E01BFC1F0B11F4E0E6473 PUSH16 0x6C634300081A00330000000000000000 "
		},
		"gasEstimates": {
			"creation": {
				"codeDepositCost": "244000",
				"executionCost": "44496",
				"totalCost": "288496"
			},
			"external": {
				"get()": "infinite",
				"set(uint256,uint256)": "infinite",
				"var1()": "2446",
				"var2()": "2425"
			}
		},
		"methodIdentifiers": {
			"get()": "6d4ce63c",
			"set(uint256,uint256)": "1ab06ee5",
			"var1()": "67e919b6",
			"var2()": "507aff57"
		}
	},
	"abi": [
		{
			"inputs": [],
			"name": "get",
			"outputs": [
				{
					"internalType": "uint256",
					"name": "",
					"type": "uint256"
				},
				{
					"internalType": "uint256",
					"name": "",
					"type": "uint256"
				},
				{
					"internalType": "uint256",
					"name": "",
					"type": "uint256"
				},
				{
					"internalType": "uint256",
					"name": "",
					"type": "uint256"
				},
				{
					"internalType": "uint256",
					"name": "",
					"type": "uint256"
				},
				{
					"internalType": "uint256",
					"name": "",
					"type": "uint256"
				},
				{
					"internalType": "uint256",
					"name": "",
					"type": "uint256"
				}
			],
			"stateMutability": "nonpayable",
			"type": "function"
		},
		{
			"inputs": [
				{
					"internalType": "uint256",
					"name": "x",
					"type": "uint256"
				},
				{
					"internalType": "uint256",
					"name": "y",
					"type": "uint256"
				}
			],
			"name": "set",
			"outputs": [],
			"stateMutability": "nonpayable",
			"type": "function"
		},
		{
			"inputs": [],
			"name": "var1",
			"outputs": [
				{
					"internalType": "uint256",
					"name": "",
					"type": "uint256"
				}
			],
			"stateMutability": "view",
			"type": "function"
		},
		{
			"inputs": [],
			"name": "var2",
			"outputs": [
				{
					"internalType": "uint256",
					"name": "",
					"type": "uint256"
				}
			],
			"stateMutability": "view",
			"type": "function"
		}
	]
}